:020000040800F2
:100000000050002095320008D3310008D531000897
:10001000D7310008D9310008DB31000800000000AA
:10002000000000000000000000000000DD310008BA
:10003000DF31000800000000E1310008E331000872
:10004000DD320008DD320008DD320008DD32000854
:10005000DD320008DD320008DD320008DD32000844
:10006000DD320008DD320008DD320008DD32000834
:10007000DD320008DD320008DD320008DD32000824
:10008000DD320008DD320008F1310008DD32000801
:1000900001320008DD320008DD32000811320008AC
:1000A000DD320008DD320008DD320008DD320008F4
:1000B0001D320008DD320008DD320008DD320008A4
:1000C000DD320008DD320008DD320008DD320008D4
:1000D000DD320008DD320008DD320008DD320008C4
:1000E000DD320008DD320008DD32000800000000CB
:1000F0000000000000000000000000000000000000
:0C01000000000000000000005FF808F1A3
:1001100010B5054C237833B9044B13B10448AFF341
:1001200000800123237010BD180000200000000093
:10013000283300080C4B43B10C4810B50C49AFF301
:1001400000800C48036823B910BD0A48036833B91E
:100150007047094B002BF7D0BDE810401847064BFD
:10016000002BF5D0184700BF00000000283300081E
:100170001C000020180000200000000081F0004159
:1001800002E000BF83F0004330B54FEA41044FEA7C
:10019000430594EA050F08BF90EA020F1FBF54EA17
:1001A000000C55EA020C7FEA645C7FEA655C00F0B3
:1001B000E2804FEA5454D4EB5555B8BF6D420CDD84
:1001C0002C4480EA020281EA030382EA000083EA07
:1001D000010180EA020281EA0303362D88BF30BDA7
:1001E00011F0004F4FEA01314FF4801C4CEA1131FD
:1001F00002D0404261EB410113F0004F4FEA03335C
:100200004CEA133302D0524263EB430394EA050FE6
:1002100000F0A780A4F10104D5F1200E0DDB02FA55
:100220000EFC22FA05F2801841F1000103FA0EF2E9
:10023000801843FA05F359410EE0A5F120050EF1AF
:10024000200E012A03FA0EFC28BF4CF0020C43FAE0
:1002500005F3C01851EBE37101F0004507D54FF0ED
:10026000000EDCF1000C7EEB00006EEB0101B1F53D
:10027000801F1BD3B1F5001F0CD349085FEA300083
:100280004FEA3C0C04F101044FEA445212F5800F8E
:1002900080F09A80BCF1004F08BF5FEA500C50F12B
:1002A000000041EB045141EA050130BD5FEA4C0C0E
:1002B000404141EB010111F4801FA4F10104E9D197
:1002C00091F0000F04BF01460020B1FA81F308BF8E
:1002D0002033A3F10B03B3F120020CDA0C3208DD5A
:1002E00002F1140CC2F10C0201FA0CF021FA02F135
:1002F0000CE002F11402D8BFC2F1200C01FA02F1A5
:1003000020FA0CFCDCBF41EA0C019040E41AA2BFC9
:1003100001EB0451294330BD6FEA04041F3C1CDA91
:100320000C340EDC04F11404C4F1200220FA04F0B1
:1003300001FA02F340EA030021FA04F345EA03015B
:1003400030BDC4F10C04C4F1200220FA02F001FA1D
:1003500004F340EA0300294630BD21FA04F029469F
:1003600030BD94F0000F83F4801306BF81F4801138
:100370000134013D4EE77FEA645C18BF7FEA655CAB
:1003800029D094EA050F08BF90EA020F05D054EA7D
:10039000000C04BF1946104630BD91EA030F1EBF82
:1003A0000021002030BD5FEA545C05D14000494186
:1003B00028BF41F0004130BD14F580043CBF01F579
:1003C000801130BD01F0004545F0FE4141F470015F
:1003D0004FF0000030BD7FEA645C1ABF194610463A
:1003E0007FEA655C1CBF0B46024650EA013406BF3B
:1003F00052EA033591EA030F41F4002130BD00BFFA
:1004000090F0000F04BF0021704730B54FF48064B6
:1004100004F132044FF000054FF0000150E700BF37
:1004200090F0000F04BF0021704730B54FF4806496
:1004300004F1320410F0004548BF40424FF0000183
:100440003EE700BF42004FEAE2014FEA31014FEAC6
:1004500002701FBF12F07F4393F07F4F81F0605115
:10046000704792F0000F14BF93F07F4F704730B584
:100470004FF4607401F0004521F0004120E700BF17
:1004800050EA010208BF704730B54FF000050AE09E
:1004900050EA010208BF704730B511F0004502D59F
:1004A000404261EB41014FF4806404F132045FEAA1
:1004B000915C3FF4DCAE4FF003025FEADC0C18BF46
:1004C00003325FEADC0C18BF033202EBDC02C2F13C
:1004D000200300FA03FC20FA02F001FA03FE40EACE
:1004E0000E0021FA02F11444C1E600BF70B54FF0CE
:1004F000FF0C4CF4E06C1CEA11541DBF1CEA1355B0
:1005000094EA0C0F95EA0C0F00F0DEF82C4481EA17
:10051000030621EA4C5123EA4C5350EA013518BF37
:1005200052EA033541F4801143F4801338D0A0FB24
:1005300002CE4FF00005E1FB02E506F00042E0FBD1
:1005400003E54FF00006E1FB03569CF0000F18BFD7
:100550004EF0010EA4F1FF04B6F5007F64F540747F
:1005600004D25FEA4E0E6D4146EB060642EAC62112
:1005700041EA55514FEAC52040EA5E504FEACE2E7F
:10058000B4F1FD0C88BFBCF5E06F1ED8BEF1004F82
:1005900008BF5FEA500E50F1000041EB045170BDFE
:1005A00006F0004646EA010140EA020081EA030142
:1005B000B4EB5C04C2BFD4EB0C0541EA045170BD3E
:1005C00041F480114FF0000E013C00F3AB8014F1B8
:1005D000360FDEBF002001F0004170BDC4F1000401
:1005E000203C35DA0C341BDC04F11404C4F1200582
:1005F00000FA05F320FA04F001FA05F240EA0200DD
:1006000001F0004221F0004110EBD37021FA04F612
:1006100042EB06015EEA430E08BF20EAD37070BDCC
:10062000C4F10C04C4F1200500FA04F320FA05F02B
:1006300001FA04F240EA020001F0004110EBD3702D
:1006400041F100015EEA430E08BF20EAD37070BD9D
:10065000C4F1200500FA05F24EEA020E20FA04F376
:1006600001FA05F243EA020321FA04F001F0004125
:1006700021FA04F220EA020000EBD3705EEA430E96
:1006800008BF20EAD37070BD94F0000F0FD101F0C5
:100690000046400041EB010111F4801F08BF013CFE
:1006A000F7D041EA060195F0000F18BF704703F03C
:1006B0000046520043EB030313F4801F08BF013DC3
:1006C000F7D043EA0603704794EA0C0F0CEA13557F
:1006D00018BF95EA0C0F0CD050EA410618BF52EA39
:1006E0004306D1D181EA030101F000414FF000003F
:1006F00070BD50EA410606BF1046194652EA43064D
:1007000019D094EA0C0F02D150EA013613D195EAC0
:100710000C0F05D152EA03361CBF104619460AD108
:1007200081EA030101F0004141F0FE4141F4700112
:100730004FF0000070BD41F0FE4141F4780170BD02
:1007400070B54FF0FF0C4CF4E06C1CEA11541DBF67
:100750001CEA135594EA0C0F95EA0C0F00F0A7F869
:10076000A4EB050481EA030E52EA03354FEA013196
:1007700000F088804FEA03334FF0805545EA1313A9
:1007800043EA12634FEA022245EA111545EA106571
:100790004FEA00260EF000419D4208BF964244F108
:1007A000FD0404F5407402D25B084FEA3202B61A27
:1007B00065EB03055B084FEA32024FF480104FF4FB
:1007C000002CB6EB020E75EB030E22BFB61A75466F
:1007D00040EA0C005B084FEA3202B6EB020E75EB02
:1007E000030E22BFB61A754640EA5C005B084FEA6A
:1007F0003202B6EB020E75EB030E22BFB61A754637
:1008000040EA9C005B084FEA3202B6EB020E75EB41
:10081000030E22BFB61A754640EADC0055EA060E02
:1008200018D04FEA051545EA16754FEA06164FEA45
:10083000C30343EA52734FEAC2025FEA1C1CC0D1F1
:1008400011F4801F0BD141EA00014FF000004FF07E
:10085000004CB6E711F4801F04BF01430020B4F13F
:10086000FD0C88BFBCF5E06F3FF6AFAEB5EB030CF7
:1008700004BFB6EB020C5FEA500C50F1000041EBF4
:10088000045170BD0EF0004E4EEA113114EB5C04C1
:10089000C2BFD4EB0C0541EA045170BD41F4801194
:1008A0004FF0000E013C90E645EA060E8DE60CEA9C
:1008B000135594EA0C0F08BF95EA0C0F3FF43BAFB9
:1008C00094EA0C0F0AD150EA01347FF434AF95EA70
:1008D0000C0F7FF425AF104619462CE795EA0C0F54
:1008E00006D152EA03353FF4FDAE1046194622E721
:1008F00050EA410618BF52EA43067FF4C5AE50EAFB
:1009000041047FF40DAF52EA43057FF4EBAE12E7EA
:100910004A0011D212F5001211D20DD56FF478737E
:10092000B3EB62520ED44FEAC12343F0004343EAD3
:10093000505323FA02F070474FF00000704750EA1E
:10094000013002D14FF0FF3070474FF00000704788
:1009500080F0004002E000BF81F0004142001FBF74
:100960005FEA410392EA030F7FEA226C7FEA236C7D
:100970006AD04FEA1262D2EB1363C1BFD218414072
:1009800048404140B8BF5B42192B88BF704710F008
:10099000004F40F4000020F07F4018BF404211F0AB
:1009A000004F41F4000121F07F4118BF494292EA13
:1009B000030F3FD0A2F1010241FA03FC10EB0C003F
:1009C000C3F1200301FA03F100F0004302D54942CC
:1009D00060EB4000B0F5000F13D3B0F1807F06D379
:1009E00040084FEA310102F10102FE2A51D2B1F171
:1009F000004F40EBC25008BF20F0010040EA030066
:100A00007047490040EB000010F4000FA2F1010212
:100A1000EDD1B0FA80FCACF1080CB2EB0C0200FA9C
:100A20000CF0AABF00EBC25052421843BCBFD040EA
:100A30001843704792F0000F81F4000106BF80F464
:100A400000000132013BB5E74FEA41037FEA226C27
:100A500018BF7FEA236C21D092EA030F04D092F0F2
:100A6000000F08BF0846704790EA010F1CBF002026
:100A7000704712F07F4F04D1400028BF40F0004083
:100A8000704712F100723CBF00F50000704700F0A3
:100A9000004343F0FE4040F4000070477FEA2262CA
:100AA00016BF08467FEA23630146420206BF5FEA9B
:100AB000412390EA010F40F4800070474FF000039B
:100AC00004E000BF10F0004348BF40425FEA000C62
:100AD00008BF704743F0964301464FF000001CE00A
:100AE00050EA010208BF70474FF000030AE000BF60
:100AF00050EA010208BF704711F0004302D540429E
:100B000061EB41015FEA010C02BF8446014600200F
:100B100043F0B64308BFA3F18053A3F50003BCFA2A
:100B20008CF2083AA3EBC25310DB01FA02FC6344D7
:100B300000FA02FCC2F12002BCF1004F20FA02F2DE
:100B400043EB020008BF20F00100704702F12002D1
:100B500001FA02FCC2F1200250EA4C0021FA02F232
:100B600043EB020008BF20EADC70704710B5044672
:100B7000074B1868074BA3FB0030800900F0D8FF33
:100B8000002221464FF0FF3000F094FF002010BDFE
:100B900014000020D34D621008B5074A136843F0D3
:100BA00010031360032000F073FF0020FFF7DEFF47
:100BB00002F03CFA002008BD00200240024A1368FF
:100BC00001331360704700BF38000020014B1868E4
:100BD000704700BF3800002030B583B00190FFF7A8
:100BE000F5FF0546019CB4F1FF3F00D00134FFF74B
:100BF000EDFF401BA042FAD303B030BD70477047F1
:100C000010B5044603685A6812F0200F18D01A680D
:100C100012F0020F14D0826A12F0100F03D1826A10
:100C200042F4007282629A6802F46022B2F5602F88
:100C300038D02046FFF7E2FF23686FF012021A60F7
:100C400023685A6812F0800F22D01A6812F0040F3D
:100C50001ED0A26A12F0100F03D1A26A42F4005211
:100C6000A2629A6802F4E042B2F5E04F31D05A68CD
:100C700012F4806F05D19A6802F46022B2F5602FF9
:100C800024D0204602F002F823686FF00C021A60AC
:100C900023685A6812F0400F03D01B6813F0010F4D
:100CA00028D110BDE268002AC3D15A6822F0200280
:100CB0005A60A36A23F48073A362A36A13F4805F6B
:100CC000B7D1A36A43F00103A362B2E7E268002A46
:100CD000D7D15A6822F080025A60A36A23F4805365
:100CE000A362A36A13F4807FCBD1A36A43F001030C
:100CF000A362C6E7A36A43F48033A3622046FFF7EA
:100D00007EFF23686FF001021A60CAE730B583B036
:100D10000023019303689A6812F0010F2ED19A689C
:100D200042F001029A60174B1B68174AA2FB03238B
:100D30009B0C019302E0019B013B0193019B002B63
:100D4000F9D10446FFF742FF054623689B6813F07C
:100D5000010F11D1FFF73AFF401B0228F5D9A36A12
:100D600043F01003A362E36A43F00103E36200234C
:100D700084F82430012002E0002000E0002003B0CD
:100D800030BD00BF1400002083DE1B4338B503686C
:100D90009A6812F0010F01D1002038BD04469A680C
:100DA00022F001029A60FFF711FF054623689B6855
:100DB00013F0010F0ED0FFF709FF401B0228F5D9F1
:100DC000A36A43F01003A362E36A43F00103E36202
:100DD000012038BD002038BD00287FD038B504463A
:100DE000836A002B4AD02046FFF7D0FFA36A13F096
:100DF00010036DD100286BD1A26A22F4885222F030
:100E0000020242F00202A2626268E1690A43E568F6
:100E100042EA4502A168B1F5807F38D0012933D07C
:100E20006169012936D02568696821F469410B435D
:100E30006B6021688D682A4B2B4013438B60A3683D
:100E4000B3F5807F37D0012B35D000232568E96AC0
:100E500021F470010B43EB6223689968214B0B402E
:100E60009A422CD0A36A23F0120343F01003A3622A
:100E7000E36A43F00103E362012038BDC36280F8F6
:100E8000243002F01DF9AEE74FF48073C8E74FF449
:100E90008073C5E735B9A169013943EA413343F4A9
:100EA0000063C0E7A16A41F02001A162E16A41F05C
:100EB0000101E162B7E72369013B1B05C6E7002397
:100EC000E362A36A23F0030343F00103A36238BD86
:100ED000A36A43F01003A362012038BD01207047CC
:100EE000FDF7E1FFFE0E1FFF90F82430012B02D129
:100EF00002231846704710B50446012380F82430B9
:100F0000FFF704FF034600284AD1A26A22F44052A8
:100F100022F0010242F48052A2622168234A9142E7
:100F200024D0A26A22F48012A262A26A12F4807F04
:100F300001D10022E262002284F824206FF0040232
:100F40000A6021684A6842F080024A60226851685B
:100F500011F4806F27D1916801F4E041B1F5E04FC1
:100F60000FD0916841F4004191601CE0A2F58062CD
:100F7000526812F4702FD4D0A26A42F48012A26296
:100F8000D3E70A498A4204D0916841F40211916082
:100F900009E0A1F58061496811F4702FE1D1F3E710
:100FA000002284F82420184610BD00BF002801400C
:100FB000032909D0042904D0022908D00368D86B7A
:100FC00070470368986C70470368586C70470368F3
:100FD000186C7047F0B482B003460022019280681A
:100FE00093F82420012A00F0FC80012283F82420B9
:100FF00000284CD14A68012A3FD09A6A42F0200268
:101000009A6201201C68A26812F0010F07D1A26841
:1010100022F4E04222F00102CD692A43A2608A69EB
:10102000012A5ED04A69012A6BD00A68092A76D95A
:101030001E68F46802EB42021E3A0725954024EA36
:1010400005048D6805FA02F22243F2600A68103A3C
:10105000012A72D94A68022A00F08880032A00F027
:101060008F80012A6FD01C68226A22F47F6222F0EE
:101070000F02CD682A4322626EE01868826B920DDF
:1010800092050C6842EAC43282630020BAE74A68DB
:101090000C69A24215D81F68BD6B101B00EB8000C5
:1010A0000F301F22824042F4401225EA0205621EE0
:1010B0000E6806FA00F040EA02522A43BA630020A2
:1010C000A0E71E68B56B121B02EB82020F321F20D5
:1010D00000FA02F242F4401225EA0202B263002052
:1010E00090E7CA69B2F5E04F05D09A6A42F0200253
:1010F0009A62012096E71C68626842F4806262602E
:1011000090E78A692AB91C68626842F4805262607A
:101110008BE79A6A42F020029A62012085E71E68F6
:10112000346902EB42020725954024EA05048D68E4
:1011300005FA02F22243326188E71C68A26842F491
:101140000002A26086E71C68626922F47F6222F0D6
:101150000F02CD682A4362610A68103A012A19D940
:10116000002283F8242002B0F0BC70471C68A269FA
:1011700022F47F6222F00F02CD682A43A261EBE7DE
:101180001C68E26922F47F6222F00F02CD682A43D4
:10119000E261E1E71A68144CA24205D09A6A42F073
:1011A00020029A620120DBE7946814F4000FD7D183
:1011B000946844F4000494600A68102AD0D10B4A61
:1011C00012680B49A1FB0212920C02EB8202510041
:1011D000019102E0019A013A0192019A002AF9D1A3
:1011E000BEE70220BFE700BF00240140140000203A
:1011F00083DE1B43F0B44B6901229A400468D4F8A3
:10120000003223F47C534D6A43EA052343F0010383
:10121000C4F800320568D5F81C42D3431C40C5F819
:101220001C42CC69C4B90568D5F80C421C40C5F80D
:101230000C4206684C69CF688D8845EA07454834FA
:1012400046F8345004684E698F680D8845EA0745B2
:10125000483604EBC6046560CC69012C1ED08C694D
:10126000002C35D10568D5F804421C40C5F804426D
:101270000C69002C33D10468D4F814522B40C4F804
:1012800014320B6A012B31D00268D2F8003223F0FD
:101290000103C2F800320020F0BC70470568D5F8A1
:1012A0000C421443C5F80C4206684C690F688D88DF
:1012B00045EA0745483446F8345004684E698F685B
:1012C0008D8945EA0745483604EBC6046560C6E7E4
:1012D0000568D5F804421443C5F80442C8E7046819
:1012E000D4F814321343C4F81432CAE70368D3F8AD
:1012F0001C120A43C3F81C22C6E7002800F09C8099
:1013000038B5044690F83C3003B3022384F83C30EF
:101310002268136823F0020313602268136843F005
:1013200001031360FFF752FC054623685A6812F068
:10133000010F10D1FFF74AFC401B0A28F5D9032002
:1013400084F83C00002384F83D3038BD80F83D30FF
:1013500001F0E0FED9E75A6812F0010F5DD0A269F2
:10136000012A43D00022E169012941D022F0400244
:10137000216A01293FD022F02002616A01293DD073
:1013800022F01002A16A01293BD022F00802E16A92
:10139000012939D022F00402196821F0FC010A4326
:1013A0001A602168A368E2681343226913436269E3
:1013B00013436268013A1343CB612268136823F038
:1013C00001031360FFF702FC054623685A6812F018
:1013D000010F1CD0FFF7FAFB401B0A28F5D90320A8
:1013E00084F83C00002384F83D3038BD8022BAE701
:1013F00042F04002BCE742F02002BEE742F0100299
:10140000C0E742F00802C2E742F00402C4E75B68AA
:1014100013F0010F08D0002300E0002333B90423A8
:1014200084F83C30012038BD0123F7E70020206418
:10143000012384F83C3038BD01207047026893686E
:1014400013F0806F08D1936813F0006F04D1936894
:1014500013F0805F00F09A8090F83D30012B00F08F
:101460009A80F0B4012380F83D30936813F0806FC8
:1014700005D1936813F0006F59D0012300E00023D9
:1014800003F118010901545804F001045450016B90
:101490008A68002A4DD1056803F118021201AC5880
:1014A0000E68C96841EA46512143A950016B0A6997
:1014B00002F00F020A61046803F1180211016218B8
:1014C000546824F00F04546002680A445168046BA5
:1014D0002469214351600468016BCD7D8A7D12042B
:1014E00042EA05624D7D42EA0522097D0A431D015B
:1014F0002C44C4F888210168046BE67EA27E1204A5
:1015000042EA0662667E42EA0622247E224329449B
:10151000C1F88C2190F83C20D2B2322A2ED0622A17
:1015200030D0222A12D0122280F83C2011E002236F
:10153000A6E7066803F11804240135594F6842EA0A
:10154000C702C9680A432A433251AFE7422280F8F2
:101550003C200022026480F83D20046818331B01FF
:10156000E15841F00101E15001684B6943F40F4338
:1015700043F001034B611046F0BC7047522280F8E3
:101580003C20E6E7722280F83C20E2E7042380F862
:101590003C3001207047022070470B4699B990F803
:1015A0003C20D2B2222A7CD090F83C20D2B2422AEF
:1015B00079D090F83C20D2B2622A76D090F83C20C4
:1015C000D2B2722A73D0012B16D090F83D20012A96
:1015D00075D010B4012280F83D20002B41D190F845
:1015E0003C20D2B2322A34D0522A36D0122A19D014
:1015F000222280F83C2018E090F83C20D2B2322A17
:1016000057D090F83C20D2B2522A54D090F83C20C7
:10161000D2B2622A51D090F83C20D2B2722AD4D1F0
:1016200002207047422280F83C20002101640468B7
:10163000626942F40F4242F00102626180F83D109B
:1016400043B30268536943F050035361002010BC58
:101650007047622280F83C20E7E7722280F83C2045
:10166000E3E790F83C20D2B2222A0BD0422A0DD0D8
:10167000122A03D0322280F83C20D6E7522280F88A
:101680003C20D2E7622280F83C20CEE7722280F82C
:101690003C20CAE70268536943F00A0353610846D5
:1016A000D5E70220704702207047022070470220D1
:1016B00070470220704702207047022070470220C6
:1016C0007047704708B50268536923F001035361FE
:1016D00090F83C30DBB2122B0CD090F83C30DBB2EF
:1016E000522B14D0722B16D0422B09D0012380F834
:1016F0003C3008E00268536923F40F435361ECE780
:10170000222380F83C30FFF7DCFF002008BD3223A5
:1017100080F83C30F7E7622380F83C30F3E710B5FF
:101720000C46002974D1436B016804F11B021201BD
:101730008A5802F004029A60002A6BD1016804F111
:101740001B0212018A58520D1A60016804F11B0233
:101750001201895801F00201D960016811444968F9
:1017600001F00F0119611C6201680A445268C2F35A
:101770000722DA61016822011144D1F8B811197504
:1017800001681144D1F8B811090A5975016811446A
:10179000D1F8B811090C997501681144D1F8B81144
:1017A000090ED97501681144D1F8BC111976016888
:1017B0001144D1F8BC11090A597601681144D1F8D5
:1017C000BC11090C997601680A44D2F8BC21120EAA
:1017D000DA763CBB03682022DA600268536923F0A2
:1017E0000A03536190F83C30DBB2222B23D0322B1A
:1017F00021D0002C34D190F83C30DBB2622B27D0C2
:10180000722B29D0422B1CD0012380F83C301BE0E6
:10181000836B89E7016804F11B0212018A58D20820
:101820005A6092E7036820221A610268536923F024
:1018300050035361D6E70268536923F40F435361A1
:10184000D7E7122380F83C3001F038F9002010BDB2
:10185000322380F83C30F7E7522380F83C30F3E73E
:1018600090F83C30DBB2622B0BD0722B0DD0522B98
:1018700003D0012380F83C30E6E7122380F83C30A7
:10188000E2E7222380F83C30DEE7422380F83C3058
:10189000DAE7704770B504460268D168536911F001
:1018A000100F09D003F00803002B00F0A6801023CE
:1018B000D3604FF4007500E0002522681169536978
:1018C00003F0400311F0100F04D01BB145F4806504
:1018D0001023136123685A6912F0010F28D09E6803
:1018E0009968674A0A40996821F06F4121F47E01A6
:1018F000090C09046348B04305D06148824202D014
:10190000614A914214D199689A6802F400729B6806
:1019100003F0010311F0020F02D10AB9002B6ED0BF
:101920002046FFF7CFFE22689168584B0B43936027
:101930002368DA685B6903F0020312F0030F01D039
:10194000002B5FD123681A695B6903F0100312F062
:10195000030F01D0002B5AD1236C1D43256423684B
:1019600098695A6902F48072596901F4004110F0D3
:10197000010F05D022B119B1226C42F0010222649C
:1019800098695A6902F40072596901F4004110F033
:10199000020F05D022B119B1226C42F0020222647A
:1019A00098695A6902F48062596901F4004110F0A3
:1019B000040F05D022B119B1226C42F00402226456
:1019C00098695A6902F40062596901F4004110F003
:1019D000700F32D08AB381B39A6902F07002302A54
:1019E0002ED019D9502A30D0602A33D0402A20D1A5
:1019F000226C42F0400222641BE000255DE745F4C2
:101A0000006590E700212046FFF789FE9AE7012153
:101A10002046FFF784FE9FE7102A06D0202A08D12F
:101A2000226C42F01002226403E0226C42F00802B1
:101A300022649A6922F070029A61236C7BB970BDAE
:101A4000226C42F020022264F3E7226C42F0800212
:101A50002264EEE7226C42F480722264E9E7236894
:101A600004225A60012384F83C302268536923F42D
:101A70000F4323F05B0353612046FFF70AFFDEE7C5
:101A80000001000801000004000001100905010028
:101A9000074AD36823F4E0631B041B0C000200F424
:101AA000E060184340F0BF6040F40030D060704701
:101AB00000ED00E030B4164BDB68C3F30223C3F142
:101AC0000704042C28BF04241D1D062D17D9033B31
:101AD000012505FA04F4013C2140994005FA03F37D
:101AE000013B1340194300280BDB0901C9B200F187
:101AF000604000F5614080F8001330BC704700235F
:101B0000E6E700F00F000901C9B2024B1954F4E7EF
:101B100000ED00E014ED00E0420900F01F00012399
:101B200003FA00F0014B43F82200704700E100E0A7
:101B30000138B0F1807F0AD2064B5860F021064A86
:101B400082F823100020986007221A607047012055
:101B5000704700BF10E000E000ED00E0042805D071
:101B6000054A136823F0040313607047024A1368A0
:101B700043F004031360704710E000E0704708B5BD
:101B8000FFF7FCFF08BD0000F0B583B00026344627
:101B900071E0002D00F0A180012D00D1CE68FF2B57
:101BA00000F2AF808646FF2B00F2AE80A500DEF883
:101BB00000200F27AF4022EA070206FA05F52A4364
:101BC000CEF800204A6812F0805F53D0634A9569CE
:101BD00045F001059561926902F001020192019AB6
:101BE000A508AF1C5E4A52F8272004F00307BF0087
:101BF0004FF00F0E0EFA07FE22EA0E02DFF870E138
:101C0000704500F088800EF5806E704500F086808B
:101C10000EF5806E704500F084800EF5806E704584
:101C200076D04FF0040E0EFA07F73A4302354C4FC8
:101C300047F825204A6812F4803F75D0494D2A683C
:101C40001A432A604A6812F4003F73D0454D6A680F
:101C50001A436A604A6812F4801F71D0414DAA6825
:101C60001A43AA604A6812F4001F6FD03D4DEA681B
:101C70001343EB6001340F2C6ED80122A2400B6895
:101C800013409A42F6D14D68122D30D00BD8022D58
:101C90002AD07FF67EAF032D2FD0112D7FF47FAF9A
:101CA000CE6804367BE7304FBD4216D00CD92F4F9B
:101CB000BD4212D007F58037BD420ED0A7F5801780
:101CC000BD427FF46CAF08E0A7F58017BD4204D099
:101CD00007F58037BD427FF462AF8D687DB1012D7D
:101CE00008D0426108265AE7CE68083657E7CE6822
:101CF0000C3654E70261082651E700264FE7042618
:101D00004DE700F1040E4EE7A4F10805AD004EE7E3
:101D10004FF0030E87E74FF0000E84E74FF0010EFF
:101D200081E74FF0020E7EE70E4D2A6822EA030299
:101D30002A6087E70B4D6A6822EA03026A6089E736
:101D4000084DAA6822EA0302AA608BE7054DEA68FB
:101D500022EA0303EB608DE703B0F0BD0010024000
:101D6000000001400004014000002110000031107B
:101D7000000801408368194201D10020704701200A
:101D8000704712B909040161704701617047000092
:101D900008B5054B5B69034200D108BD024B586191
:101DA00000F0C8FEF9E700BF0004014082B0084B14
:101DB0001B68084AA2FB03235B0A00FB03F00190A7
:101DC00000BF019B5A1E0192002BF9D102B070474F
:101DD00014000020D34D621070B582B00446036831
:101DE00013F0010F3DD0AC4B5B6803F00C03042BE8
:101DF0002ED0A94B5B6803F00C03082B23D063683B
:101E0000B3F5803F51D0002B55D103F1804303F54A
:101E100004331A6822F480321A601A6822F480228D
:101E20001A606368002B60D0FEF7D0FE05469A4B1F
:101E30001B6813F4003F14D1FEF7C8FE401B642852
:101E4000F5D90320AFE1944B5B6813F4803FD6D003
:101E5000914B1B6813F4003F03D06368002B00F024
:101E60009F81236813F0020F65D08B4B5B6813F0E2
:101E70000C0F4ED0884B5B6803F00C03082B43D04B
:101E80002369002B79D00122844B1A60FEF79EFE55
:101E90000546814B1B6813F0020F65D1FEF796FED5
:101EA000401B0228F5D903207DE17B4A136843F4E7
:101EB00080331360B5E7B3F5A02F09D0764B1A68CD
:101EC00022F480321A601A6822F480221A60A8E78D
:101ED00003F18043A3F53C331A6842F480221A6070
:101EE0001A6842F480321A609BE7FEF76FFE0546DF
:101EF000694B1B6813F4003FB3D0FEF767FE401B2D
:101F00006428F5D903204EE1634B5B6813F4803FEE
:101F1000B6D1614B1B6813F0020F04D02369012B6B
:101F200001D001203FE15C4A136823F0F8036169A6
:101F300043EAC1031360236813F0080F32D0A3698A
:101F4000002B6ED00122564B1A60FEF73FFE05466D
:101F5000514B5B6A13F0020F21D1FEF737FE401B95
:101F60000228F5D903201EE14B4A136823F0F80339
:101F7000616943EAC1031360DDE70022474B1A6041
:101F8000FEF724FE0546444B1B6813F0020FD2D027
:101F9000FEF71CFE401B0228F5D9032003E10120B7
:101FA000FFF704FF236813F0040F00F099803A4B09
:101FB000DB6913F0805F46D1374BDA6942F080521B
:101FC000DA61DB6903F080530193019B0125354BF6
:101FD0001B6813F4807F38D0E368012B49D0002BB5
:101FE0004DD103F1804303F504331A6A22F0010254
:101FF0001A621A6A22F004021A62E368002B5DD0AA
:10200000FEF7E4FD0646244B1B6A13F0020F66D16F
:10201000FEF7DCFD801B41F288339842F3D90320A0
:10202000C1E000221E4B1A60FEF7D0FD05461A4B98
:102030005B6A13F0020FB5D0FEF7C8FD401B022803
:10204000F5D90320AFE00025C1E7164A136843F431
:1020500080731360FEF7BAFD0646124B1B6813F43B
:10206000807FB9D1FEF7B2FD801B6428F5D903202B
:1020700099E0094A136A43F001031362BDE7052B97
:1020800012D0054B1A6A22F001021A621A6A22F073
:1020900004021A62B1E700BF001002400000424291
:1020A0008004424200700040414B1A6A42F0040230
:1020B0001A621A6A42F001021A629EE7FEF786FD72
:1020C00006463B4B1B6A13F0020F08D0FEF77EFD5D
:1020D000801B41F288339842F3D9032063E0E5B9CD
:1020E000E369002B5ED0324A526802F00C02082AE3
:1020F0005BD0022B17D000222E4B1A60FEF766FD34
:1021000004462B4B1B6813F0007F47D0FEF75EFDA3
:10211000001B0228F5D9032045E0254AD36923F0A6
:102120008053D361DCE70022224B1A60FEF74EFD9C
:1021300005461F4B1B6813F0007F06D0FEF746FDD7
:10214000401B0228F5D903202DE0236AB3F5803F18
:102150001AD017494B6823F47413226A606A024349
:1021600013434B600122134B1A60FEF72FFD044608
:102170000F4B1B6813F0007F0ED1FEF727FD001BED
:102180000228F5D903200EE0094A536823F40033EE
:10219000A1680B435360DCE7002004E0002002E06C
:1021A000012000E0002002B070BD0120FBE700BF6D
:1021B000001002406000424210B586B0154C94E811
:1021C0000F000DF1180E0EE90F00238AADF8043050
:1021D000114B5B6803F00C02082A18D1C3F3834249
:1021E000724412F8100C13F4803F03D10B4B03FB25
:1021F00000F00DE0084B5B68C3F34043734413F8F1
:10220000142C074BB3FBF2F303FB00F000E004488F
:1022100006B010BD403300080010024000093D0028
:1022200000127A00594B1B6803F007038B420CD253
:10223000564A136823F007030B431360136803F037
:102240000703994201D00120704770B5036813F06D
:10225000020F06D04E4A536823F0F00384682343EC
:1022600053600D460446036813F0010F52D04368D3
:10227000012B23D0022B28D0454A126812F0020FFE
:1022800000F0828042494A6822F0030213434B6007
:10229000FEF79CFC06466368012B1DD0022B2AD05A
:1022A0003B4B5B6813F00C0F34D0FEF78FFC801BA8
:1022B00041F288339842F3D9032070BD344A126842
:1022C00012F4003FDED1012070BD314A126812F0D5
:1022D000007FD7D1012070BD2D4B5B6803F00C034C
:1022E000042B17D0FEF772FC801B41F28833984212
:1022F000F2D9032070BD264B5B6803F00C03082B5A
:1023000008D0FEF763FC801B41F288339842F2D973
:10231000032070BD1D4B1B6803F007039D420CD2C8
:102320001A4A136823F007032B431360136803F062
:1023300007039D4201D0012070BD236813F0040FF4
:1023400006D0134A536823F4E063E1680B435360FB
:10235000236813F0080F07D00D4A536823F4605325
:10236000216943EAC1035360FFF726FF084B5B680E
:10237000C3F30313074AD35CD840074B186000200F
:10238000FEF7F4FB002070BD012070BD002002406C
:10239000001002405433000814000020014B18685C
:1023A000704700BF1400002070B582B00446036877
:1023B00013F0010F34D03E4BDB6913F0805F48D13E
:1023C0003B4BDA6942F08052DA61DB6903F08053FB
:1023D0000193019B0125374B1B6813F4807F3AD092
:1023E000334B1B6A13F4407311D0626802F44072DD
:1023F00093420CD02E4A136A23F440702E490126D2
:102400000E6000260E60106213F0010F37D1284ACB
:10241000136A23F4407361680B431362002D3FD1AC
:10242000236813F0020F06D0214A536823F4404377
:10243000A1680B435360236813F0100F35D01C4A7A
:10244000536823F48003E1680B435360002002B01B
:1024500070BD0025BFE7174A136843F4807313600B
:10246000FEF7B4FB0646134B1B6813F4807FB7D10D
:10247000FEF7ACFB801B6428F5D90320E7E7FEF7E5
:10248000A5FB06460A4B1B6A13F0020FBFD1FEF7ED
:102490009DFB801B41F288339842F3D90320D6E795
:1024A000D36923F08053D361BAE70020CFE700BFA0
:1024B00000100240007000404004424210B4036A21
:1024C000046A24F001040462846924F0F00444EAFC
:1024D000021223F00A030B438261036210BC7047AF
:1024E00010B4036A23F0100303628469036A24F4BE
:1024F000704444EA023223F0A00343EA01138261EC
:10250000036210BC7047836823F0700341F0070139
:102510000B438360704710B4846824F47F4442EA1C
:10252000032319430C43846010BC70470268D368CE
:1025300043F00103D3600268136843F001031360A2
:10254000002070470268D36823F00103D36003685A
:10255000196A41F21112114208D1196A40F244423B
:10256000114203D11A6822F001021A60002070475C
:1025700090F83C30012B7DD010B50446012380F843
:102580003C30022380F83D300268936823F47F4397
:1025900023F0770393600B68402B57D010D9702B32
:1025A0003ED01FD8502B47D0602B32D1CA68496823
:1025B0000068FFF795FF60212068FFF7A4FF28E07F
:1025C000102B4DD008D9202B4FD0302B21D13021CA
:1025D0000068FFF798FF1CE0DBB900210068FFF7F7
:1025E00092FF16E0B3F5805F0ED0B3F5005F10D117
:1025F000CB684A6889680068FFF78DFF2268936896
:1026000043F48043936004E00268936823F0070377
:102610009360012384F83D30002084F83C0010BD15
:10262000CB684A6889680068FFF775FF226893687D
:1026300043F077039360ECE7CA6849680068FFF7E6
:102640003DFF50212068FFF75EFFE2E7CA68496856
:102650000068FFF733FF40212068FFF754FFD8E7F9
:1026600010210068FFF74FFFD3E720210068FFF734
:102670004AFFCEE7022070477047704770477047A7
:10268000704710B5044603681A6912F0020F11D0A2
:10269000DA6812F0020F0DD06FF002021A61012306
:1026A000037703689B6913F0030F70D0FFF7E6FF11
:1026B0000023237723681A6912F0040F12D0DA6816
:1026C00012F0040F0ED06FF004021A610223237778
:1026D00023689B6913F4407F5FD02046FFF7CEFF4D
:1026E0000023237723681A6912F0080F12D0DA68E2
:1026F00012F0080F0ED06FF008021A61042323773E
:102700002368DB6913F0030F4ED02046FFF7B6FFB6
:102710000023237723681A6912F0100F12D0DA68A9
:1027200012F0100F0ED06FF010021A6108232377F9
:102730002368DB6913F4407F3DD02046FFF79EFFFE
:102740000023237723681A6912F0010F03D0DA6897
:1027500012F0010F36D123681A6912F0800F03D0EE
:10276000DA6812F0800F34D123681A6912F0400F32
:1027700003D0DA6812F0400F32D123681A6912F0E0
:10278000200F03D0DA6812F0200F30D110BDFFF710
:1027900074FF2046FFF773FF8AE72046FFF76DFFBF
:1027A0002046FFF76CFF9BE72046FFF766FF2046B9
:1027B000FFF765FFACE72046FFF75FFF2046FFF716
:1027C0005EFFBDE76FF001021A612046FFF754FF7C
:1027D000C1E76FF080021A61204600F08EF8C3E76F
:1027E0006FF040021A612046FFF74AFFC5E76FF01D
:1027F00020021A61204600F07FF8C7E703681C4AF0
:10280000904227D0B0F1804F24D0A2F5943290426C
:1028100020D002F5806290421CD0154A90421ED012
:10282000B0F1804F1BD0A2F59432904217D002F540
:102830008062904213D023F080034A6913430360FF
:102840008B68C3620B688362094B98420CD00123EA
:102850004361704723F070034A681343DDE723F4B4
:102860004073CA681343E6E70B690363EFE700BFF1
:10287000002C0140A8B110B5044690F83D305BB182
:10288000022384F83D30211D2068FFF7B7FF0123A4
:1028900084F83D30002010BD80F83C3000F07CFC16
:1028A000EEE70120704790F83C30012B22D030B485
:1028B000012280F83C20022380F83D3004686368E0
:1028C00023F070036360046863680D682B436360E2
:1028D0000468A36823F08003A3600468A3684968C0
:1028E0000B43A36080F83D20002380F83C3018465D
:1028F00030BC7047022070477047704770B588B091
:10290000314B9A6942F010029A619A6902F0100202
:102910000092009A9A6942F020029A619A6902F044
:1029200020020192019A9A6942F004029A619A691E
:1029300002F004020292029A9A6942F008029A6135
:102940009B6903F008030393039B204E002204219C
:102950003046FFF716FA4FF46043049300240594C1
:102960000225069504A91A48FFF70EF904230493DB
:1029700001230593079504A93046FFF705F94FF4A5
:1029800080730493134B0593069404A93046FFF714
:10299000FBF84FF4004304930594069504A93046D0
:1029A000FFF7F2F8F02304930594069504A90A486A
:1029B000FFF7EAF8224603211720FFF77BF81720DC
:1029C000FFF7AAF808B070BD0010024000080140EF
:1029D0000010014000002110000C014000B58BB038
:1029E00001220592069200230793084909684901CC
:1029F000009101930293039304930892694604485B
:102A0000FEF7F8FB0BB05DF804FB00BF00000020F0
:102A10003C000020F8B500AF4900C9B2CB1D23F03F
:102A20000703ADEB030D6D4600231A4608E030F8AE
:102A30001240EC545E1C240AAC550132D2B202336F
:102A40008B42F4DB0B4A0023D360936011610A4888
:102A50004068106004E0E85C064A1A4410750133CF
:102A60008B42F8DB0548034B0363FEF7E7FCBD46EA
:102A7000F8BD00BF80000020000000203C000020C6
:102A800008B5012801D048B108BD01220421094838
:102A9000FFF777F90122084B1A7008BD00220421C4
:102AA00000F1804000F58430FFF76BF90022024B03
:102AB0001A70E9E7000801403400002010B5044610
:102AC000436B1B7D012B02D02BB100230CE00120B6
:102AD000FFF7D6FFF9E70020FFF7D2FFF5E7626BBB
:102AE0001A44002111750133072BF8DD002120461F
:102AF000FEF753FD10BD000008B50C4B1B78012BF1
:102B000001D04BB108BD002204210948FFF739F973
:102B10000022064B1A7008BD012204210448FFF769
:102B200030F90122014B1A70ECE700BF340000209D
:102B300000080140B0F5807F00D0704708B5054B14
:102B40001B68DB6813F0010F00D008BD0148FFF7D8
:102B5000EDFCFAE7CC0000202DE9F04184B04FF401
:102B60000048CDF800800025019501240294444FCF
:102B700069463846FFF708F8F02300930195029460
:102B8000404E69463046FEF7FFFF4FF46043009326
:102B90000195029469463C48FEF7F6FF3220FEF7A5
:102BA0001BF841463846FFF7E5F8B0FA80F56D09A5
:102BB00010213046FFF7DEF8002853D102242C43C1
:102BC00020213048FFF7D6F800284DD104231C43BC
:102BD00040212C48FFF7CEF8002847D108231C439A
:102BE00080212848FFF7C6F8002841D110231C4354
:102BF0004FF400512448FFF7BDF800283AD12023B4
:102C00001C434FF480412048FFF7B4F8002833D12B
:102C100040231C434FF400411B48FFF7ABF868B357
:102C200000231C434FF40043009300260196022525
:102C3000029569461248FEF7A7FFF023009301961C
:102C4000029569460F48FEF79FFF4FF460430093DB
:102C50000196029569460C48FEF796FF204604B09F
:102C6000BDE8F0810024AAE70023B0E70023B6E71F
:102C70000023BCE70023C3E70023CAE78023D0E793
:102C800000080140000C01400010014038B5054625
:102C90000121FEF78DF91F4C208002212846FEF706
:102CA00087F9608003212846FEF782F9A08004217D
:102CB0002846FEF77DF9E0802388174A128993425F
:102CC00003D3154A5289934202D90020FFF7D8FE58
:102CD000104B5B88104A9289934203D30E4AD289E3
:102CE000934202D90020FFF7CBFE0A4B9B880A4A89
:102CF000128A934203D3084A528A934202D900208F
:102D0000FFF7BEFE0122054B5A702846FEF7ECF88D
:102D100038BD00BF3001002000000020340000203A
:102D200008B5FFF719FFFDF7C9FEFDF78BFB002281
:102D3000154BFDF7DBFB10A3D3E90023FDF7D6FB12
:102D40000022124BFDF7D2FB0DA3D3E90023FDF7C0
:102D5000F7FCFDF7DDFD80B240F26663984200D9D2
:102D6000184600F500620A4B5A82C0F500601882CE
:102D700008BD00BFAFF30080462575029A089B3F4F
:102D80006666666666660A400000D03F0000B04096
:102D900000000020FEE7000008B50F480F4B03605D
:102DA0002423436000238360C3604FF44022026108
:102DB0004FF4801242618361C36103620122426267
:102DC0008362C262FEF799FA00B908BD40F24B1166
:102DD0000348FFF7DFFF00BF3C0000200064004015
:102DE0006C33000800B589B02D482E4B03604FF4BA
:102DF000807383600023C36043614FF46022C2612B
:102E0000436001230361FDF7E7FF00282FD1002372
:102E10000093012201920422049202934FF4E042B3
:102E2000079206930593039369461D48FEF7D2F86F
:102E300010BB042300930223019369461848FEF750
:102E4000C9F8F0B905230093032301936946144898
:102E5000FEF7C0F8D0B90623009304230193694616
:102E60000F48FEF7B7F8B0B909B05DF804FB4FF4AE
:102E700085710D48FFF78EFF40F219110A48FFF7E0
:102E800089FF4FF491710848FFF784FF40F22B113E
:102E90000548FFF77FFF4FF49A710348FFF77AFF69
:102EA0009C000020002401406C33000800B587B06E
:102EB00019484FF080430360472343600023836039
:102EC0004CF25032C26003618361FFF7D3FCA0B9BA
:102ED00006A94FF4805341F8103D0F48FFF748FB17
:102EE00080B9202300930023019369460A48FFF725
:102EF000DAFC60B907B05DF804FB40F25F110748E7
:102F0000FFF748FF40F265110448FFF743FF4FF415
:102F1000B6710248FFF73EFFCC0000206C3300087A
:102F200000B595B001220A924FF480330B93002133
:102F30000C910E920222119212934FF4E01313930C
:102F40000AA8FEF749FF50BB0F2305930221069103
:102F5000002307934FF480620892099305A8FFF7B6
:102F600061F900BB022301934FF40043039301A8CE
:102F7000FFF71AFAD8B9FFF711FA0F4BA3FB00308D
:102F80008009FEF7D5FD0420FEF7E8FD002211467A
:102F90004FF0FF30FEF78EFD15B05DF804FBD52134
:102FA0000648FFF7F7FEE3210448FFF7F3FEEA21A6
:102FB0000248FFF7EFFE00BFD34D62106C330008EC
:102FC00008B5FDF7E9FDFFF7ABFFFFF797FCFFF74B
:102FD000E3FEFFF707FFFFF769FFFFF7A1FEFFF72B
:102FE000FDFC0D480D4B43630021FEF7D6FA0C485B
:102FF000FDF77AFF03E04FF47A70FDF7EDFD094B22
:103000005B78012BF7D104210748FFF703FD00226D
:10301000044B5A70EFE700BF3C0000200C01002079
:103020009C000020340000203001002000B583B057
:10303000214B9A6942F001029A619B6903F00103F6
:103040000193019B0320FEF723FD002211466FF040
:103050000B00FEF72FFD002211466FF00A00FEF76D
:1030600029FD002211466FF00900FEF723FD002222
:1030700011466FF00400FEF71DFD002211466FF0AF
:103080000300FEF717FD002211466FF00100FEF766
:1030900011FD002211464FF0FF30FEF70BFD074BEC
:1030A0005A6822F0E0625A605A6842F080625A60C0
:1030B00003B05DF804FB00BF0010024000000140B7
:1030C0000268124B9A4200D0704700B587B003F5F2
:1030D0006C439A6942F400729A619B6903F400732D
:1030E0000193019B712302930323039302A90848D0
:1030F000FEF74AFD002201211220FEF7DBFC122020
:10310000FEF70AFD07B05DF804FB00BF0024014094
:103110000008014002681D4B9A4200D0704770B50C
:1031200086B003F5D633DA6942F00072DA61DB6902
:1031300003F000730193019B4FF48073029300240A
:1031400003940494124E02A93046FEF71DFD4FF47D
:1031500000730293022503950323059302A93046C9
:10316000FEF712FD0B4B5A6822F4C0425A605A68AF
:1031700042F480425A60224629461420FEF79AFC07
:103180001420FEF7C9FC06B070BD00BF006400400B
:10319000000C0140000001400368B3F1804F00D0F3
:1031A000704700B583B003F50433DA6942F00102D9
:1031B000DA61DB6903F001030193019B0022032123
:1031C0001C20FEF777FC1C20FEF7A6FC03B05DF880
:1031D00004FB7047FEE7FEE7FEE7FEE77047704737
:1031E000704708B5FDF7EAFCFEF7C9FC08BD000012
:1031F00008B50248FDF704FD08BD00BF9C00002093
:1032000008B50248FEF746FB08BD00BF3C000020A1
:1032100008B54FF48070FEF7BBFD08BD08B508483F
:10322000FFF72FFA4FF480710648FEF7A3FD18B19F
:103230000348FFF787F908BDFFF75EFCF8E700BF1A
:10324000CC000020000801400F4B1A6842F0010238
:103250001A6059680D4A0A405A601A6822F084724E
:1032600022F480321A601A6822F480221A605A68A6
:1032700022F4FE025A604FF41F029A604FF000627F
:10328000034B9A60704700BF001002400000FFF837
:1032900000ED00E0002103E00B4B5B58435004318C
:1032A0000A480B4B42189A42F6D30A4A02E000231E
:1032B00042F8043B084B9A42F9D3FFF7C5FF00F0F0
:1032C0000FF8FFF77DFE70478433000800000020F0
:1032D000180000201800002038010020FEE7000040
:1032E00070B500250C4E0D4CA41BA410A54209D1AD
:1032F00000F01AF800250A4E0A4CA41BA410A5429F
:1033000005D170BD56F8253098470135EEE756F8DF
:10331000253098470135F2E77C3300087C330008FC
:103320007C33000880330008F8B500BFF8BC08BC47
:103330009E467047F8B500BFF8BC08BC9E46704773
:1033400002030405060708090A0B0C0D0E0F1010E6
:103350000102000000000000000000000102030460
:103360000607080900000000010203042E2E2F5357
:0C33700072632F6D61696E2E6300000017
:04337C00350100080F
:04338000110100082F
:103384000100000000010000F703EF07F703EF0757
:08339400E007200800A24A0432
:040000050800329528
:00000001FF
